:100000000C943E000C9448000C9448000C9448005A
:100010000C9448000C9448000C9448000C94480040
:100020000C9448000C9448000C9448000C94480030
:100030000C9448000C9448000C9448000C94480020
:100040000C9448000C9448000C9448000C94480010
:100050000C9448000C9448000C9448000C94480000
:100060000C9448000C9448000C9448000C944800F0
:100070000C9448000C9448000C94480011241FBEB6
:10008000CFEFD8E0DEBFCDBF0E947C000C94A00073
:100090000C94000010927C0086E880937A0008950A
:1000A00010927A00089580917C00807E80937C007D
:1000B00080917C006770682B60937C0080917A004F
:1000C000806480937A0080917A0084FFFCCF8091D5
:1000D0007A00806180937A00209178008091790085
:1000E00090E0982F8827820F911D08958FEF81B996
:1000F00084B987B98AB90895CF93DF931F92CDB79A
:10010000DEB70E94760016E801E082E0F82E109239
:100110007C0010937A0060E0CE0101960E945300AB
:10012000880F880F880F10927A0090E0981719F0C6
:1001300008B99F5FFBCF8F3F51F3F8B88F5FFBCFBC
:04014000F894FFCF61
:00000001FF
